:100000000226777F0312006602336E021F7E7F0294
:100010000200665384FC220223F822022C8CC2D5F3
:10002000E830E70FB2D5E4C39BFBE49AFAE499F910
:10003000E498F8EC30E717B2D5120054120AEFE456
:10004000C39BFBE49AFAE499F9E498F88003120A56
:10005000EF30D50DE4C39FFFE49EFEE49DFDE49CDC
:02006000FC2280
:060063000222A98F1F22FA
:03007300023261F5
:10007B00022FB88F278C288D29E4F52DF52CF52B25
:10008B00F52AF531F530F52FF52E852931852830F8
:10009B00F52FF52EEF25E02472F582E43400F5837D
:1000AB00E0FEA3E0FBAA06E52725E02430F582E479
:1000BB003400F583E0FEA3E0FFC3EF9BF52DEE9A32
:1000CB00F52CE49400F52BE49400F52AE47F01FE73
:1000DB00FDFC74642527F582E43400F583E0F9F820
:1000EB00120BEA900068E0F8A3E0F9A3E0FAA3E0B2
:1000FB005FFFEA5EFEE95DFDE85CFC4D4E4F602262
:10010B00E47F06FEFDFCAB31AA30A92FA82E120A04
:10011B0064E47B0AFAF9F812001E8F318E308D2FB2
:10012B008C2E302308202505D225122B7012318BF3
:10013B00E4FFFEFDFCAB2DAA2CA92BA82AD3120B96
:10014B009C5003020344E47F07FEFDFCAB31AA3055
:10015B00A92FA82E120A64E47B0AFAF9F812001EE2
:10016B00AB2DAA2CA92BA82AC3120B9C500302015E
:10017B00FC74092527F582E43400F583E004F07460
:10018B006E2527F582E43400F583E4F07409252706
:10019B00F582E43400F583E0C394057480948050B9
:1001AB00030205CC900068E0F8A3E0F9A3E0FAA302
:1001BB00E0FBC000C001E47F01FEFDFC7464252759
:1001CB00F582E43400F583E0F9F8120BEAD001D0A4
:1001DB0000EB4FFFEA4EFEE94DFDE84CFC9000684A
:1001EB00120BFD74092527F582E43400F583E4F046
:1001FB0022AE28E5297802C333CE33CED8F9FF7C63
:10020B00007D0A120A18EE3395E0FDFCAB2DAA2CEB
:10021B00A92BA82AC3120B9C50030202B6AF2712BC
:10022B00292974242527F582E43400F583E004F0B2
:10023B0074042527F582E43400F583E4F07420255B
:10024B0027F582E43400F583E4F074002527F5826A
:10025B00E43400F583E4F074B22527F582E434002E
:10026B00F583E4F074242527F582E43400F583E06C
:10027B00C3941E7480948050030205CC74242527EC
:10028B00F582E43400F583E4F07F01FEFDFC746439
:10029B002527F582E43400F583E0F9F8120BEAED3B
:1002AB004C4E4F70030205CC020591AF2712292942
:1002BB0074242527F582E43400F583E4F0740425D7
:1002CB0027F582E43400F583E004F074202527F54C
:1002DB0082E43400F583E4F074002527F582E434DE
:1002EB0000F583E4F074B22527F582E43400F5833E
:1002FB00E4F074042527F582E43400F583E0C3941D
:10030B00067480948050030205CC74042527F58273
:10031B00E43400F583E4F07F01FEFDFC74642527D3
:10032B00F582E43400F583E0F9F8120BEAED4C4E5C
:10033B004F70030205CC020401AF27122929AE2806
:10034B00E5297802C333CE33CED8F9FF7C007D0A82
:10035B00120A18C3E49FFFE49EFE3395E0FDFCAB4D
:10036B002DAA2CA92BA82AC3120B9C5003020424E0
:10037B0074242527F582E43400F583E4F074042516
:10038B0027F582E43400F583E4F074202527F58209
:10039B00E43400F583E004F074002527F582E4349F
:1003AB0000F583E4F074B22527F582E43400F5837D
:1003BB00E4F074202527F582E43400F583E0C39440
:1003CB00067480948050030205CC74202527F58297
:1003DB00E43400F583E4F07F01FEFDFC7464252713
:1003EB00F582E43400F583E0F9F8120BEAED4C4E9C
:1003FB004F70030205CCE52725E02472F582E43427
:10040B0000F583E0FEA3E0FFE52725E02430F5822D
:10041B00E43400F583EE0205C8AE28AF297C007DDD
:10042B00231209B17D0A120A18C3E49FFFE49EFE52
:10043B003395E0FDFCAB2DAA2CA92BA82AC3120BDC
:10044B009C500302051174242527F582E43400F532
:10045B0083E4F074042527F582E43400F583E4F09B
:10046B0074202527F582E43400F583E4F07400252D
:10047B0027F582E43400F583E004F074B22527F508
:10048B0082E43400F583E4F074002527F582E4342C
:10049B0000F583E0C3941E7480948050030205CC56
:1004AB0074002527F582E43400F583E4F07F01FE28
:1004BB00FDFC74642527F582E43400F583E0F9F83C
:1004CB00120BEAED4C4E4F70030205CCE52725E0ED
:1004DB002430F582E43400F583C083C082E0FEA3B0
:1004EB00E0FFC006C007E47B02FAF9F8AF2DAE2C93
:1004FB00AD2BAC2A12001EC3D0E09FFFD0E09ED0E4
:10050B0082D0830205C874242527F582E43400F5D4
:10051B0083E4F074042527F582E43400F583E4F0DA
:10052B0074202527F582E43400F583E4F07400256C
:10053B0027F582E43400F583E4F074B22527F582C5
:10054B00E43400F583E004F074B22527F582E4343B
:10055B0000F583E0C3940574809480406474B225E5
:10056B0027F582E43400F583E4F07F01FEFDFC7493
:10057B00642527F582E43400F583E0F9F8120BEAE1
:10058B00ED4C4E4F603BE52725E02430F582E434FB
:10059B0000F583C083C082E0FEA3E0FFC006C00766
:1005AB00E47B05FAF9F8AF2DAE2CAD2BAC2A12007B
:1005BB001EC3D0E09FFFD0E09ED082D083F0A3EF8C
:1005CB00F022014000014200013E00013F000141C9
:1005DB00004101250005430000000000C12AC12B8A
:1005EB00C12CC12942011B00000117000119004257
:1005FB000121000042011F7530011800011A00444F
:10060B00002C0700000048000F012C000000000028
:10061B00004400640000000041000800014B00444E
:10062B0000090000000044006E000000004400249C
:10063B000000000044000400000000440020000003
:10064B000000440000000000004400B20000000065
:10065B0044001B000000006034007200000000002A
:10066B00000000000000000000000000000000007F
:10067B00000000000000000000000000000000006F
:10068B0000000000000000000000000000000060FF
:10069B0034003000010000000000000000000000EA
:1006AB00000000000000000000000000000000003F
:1006BB00000000000000000000000000000000002F
:1006CB000000000000000041000D00014C00410043
:1006DB001F00C123C125C12442006C00644400AE3D
:1006EB000000000044001700000000C127C1A8C192
:1006FB00264800B600010000000000004400A800DE
:10070B0000000044006800000000440028000000C6
:10071B00004200A600004100AC0041000E00C132B7
:10072B00021D0000021B00004101060001480041B0
:10073B0000FB004100FE00410107004100F823418E
:10074B0000F9234200FC0000C130C131014A000115
:10075B0049004201030000410105004100FA00413C
:10076B000108644101000041010200410101004107
:10077B0000FF00011F0041011A004101150041015A
:10078B001800410117004101190041011600C12D4C
:10079B00C12EC12F41010900410113000135000198
:1007AB003600013700013800013900013A00013BE6
:1007BB0000013C0041010A0041010B0041010D0009
:1007CB0041010E0041010F004101100041011100D8
:1007DB0041011200C11EC11DC121C120C11CC11F7D
:1007EB00C1224101140041010C00013D0001340004
:1007FB000133004100E6004100F4004100EC0041F0
:10080B0000F0004100ED004100F6004100F3004113
:10081B0000E3004100E4004100E8004100EA004130
:10082B0000E5004100E9004100EB004100E7004119
:10083B0000EE004100F1004100EF004100F20041E9
:10084B0000F500C1134100F700C119C118C117C150
:10085B0016C114C115C11AC11B4100E1004100BEF4
:10086B00000116004100C7004100C2004100D80042
:10087B004100DB004100E0004100D9004100C8000D
:10088B004100CD004100C6004100D3004100D7001C
:10089B004100D2004100C9004100C5004100D50014
:1008AB004100D6004200CA00004100CC004100D1FB
:1008BB00004100C3004100DC00C10BC10CC10FC1E2
:1008CB0011090D050A0F14191E23282D0508191ED1
:1008DB0023282DC101C10AC10DC107C104C105C126
:1008EB0003C10EC106C100C108C109C1024100BF4D
:1008FB00004100D4004100C0004100CE004100E2A5
:10090B00004200CF00004200DD00004100C1004169
:10091B0000DA004100DF004100C400C110C11241E8
:10092B0001240041012300014D00C1334101265038
:10093B000075F020800E75F010800575F0087D00B5
:10094B007E007F003392D530D503120B8EEC3340F3
:10095B0010EF33FFEE33FEED33FDEC33FCD5F0ED52
:10096B0022E5F0247EA2D513CC92E7CDCEFF22ED6B
:10097B00D2E7CD33EC3392D524814006E4FFFEFD64
:10098B00FC22FCE4CFCECDCC24E0501174FF80EDE3
:10099B00C3CC13CCCD13CDCE13CECF13CF0470F06D
:1009AB0030D5DE020B8EEF8DF0A4A8F0CF8CF0A427
:1009BB0028CE8DF0A42EFE22BC000BBE0029EF8D9D
:1009CB00F084FFADF022E4CCF875F008EF2FFFEECA
:1009DB0033FEEC33FCEE9DEC984005FCEE9DFE0FD8
:1009EB00D5F0E9E4CEFD22EDF8F5F0EE8420D21C33
:1009FB00FEADF075F008EF2FFFED33FD400798507B
:100A0B0006D5F0F222C398FD0FD5F0EA22C2D5EC41
:100A1B0030E709B2D5E4C39DFDE49CFCEE30E7154D
:100A2B00B2D5E4C39FFFE49EFE1209C3C3E49DFD50
:100A3B00E49CFC80031209C330D507C3E49FFFE499
:100A4B009EFE22C5F0F8A3E028F0C5F0F8E582156C
:100A5B008270021583E038F022E88FF0A4CC8BF083
:100A6B00A42CFCE98EF0A42CFC8AF0EDA42CFCEA5F
:100A7B008EF0A4CDA8F08BF0A42DCC3825F0FDE999
:100A8B008FF0A42CCD35F0FCEB8EF0A4FEA9F0EB8F
:100A9B008FF0A4CFC5F02ECD39FEE43CFCEAA42D9B
:100AAB00CE35F0FDE43CFC2275F008758200EF2F8B
:100ABB00FFEE33FECD33CDCC33CCC58233C5829B19
:100ACB00ED9AEC99E58298400CF582EE9BFEED9A3F
:100ADB00FDEC99FC0FD5F0D6E4CEFBE4CDFAE4CCDB
:100AEB00F9A88222B800C1B90059BA002DEC8BF0DD
:100AFB0084CFCECDFCE5F0CBF97818EF2FFFEE339A
:100B0B00FEED33FDEC33FCEB33FB10D703994004C4
:100B1B00EB99FB0FD8E5E4F9FA227818EF2FFFEEEB
:100B2B0033FEED33FDEC33FCC933C910D7059BE91C
:100B3B009A4007EC9BFCE99AF90FD8E0E4C9FAE478
:100B4B00CCFB2275F010EF2FFFEE33FEED33FDCC17
:100B5B0033CCC833C810D7079BEC9AE899400AED01
:100B6B009BFDEC9AFCE899F80FD5F0DAE4CDFBE4A9
:100B7B00CCFAE4C8F922CFF4CFCEF4CECDF4CDCC61
:100B8B00F4CC22C3E49FFFE49EFEE49DFDE49CFCB9
:100B9B0022EB9FF5F0EA9E42F0E99D42F0EC648077
:100BAB00C864809845F022EB9FF5F0EA9E42F0E98D
:100BBB009D42F0E89C45F022E8600FECC313FCED7E
:100BCB0013FDEE13FEEF13FFD8F122E86010ECA239
:100BDB00E713FCED13FDEE13FEEF13FFD8F022E845
:100BEB00600FEFC333FFEE33FEED33FDEC33FCD878
:100BFB00F122ECF0A3EDF0A3EEF0A3EFF022A8822C
:100C0B008583F0D083D082120C20120C20120C2082
:100C1B00120C20E473E493A3C583C5F0C583C8C548
:100C2B0082C8F0A3C583C5F0C583C8C582C822ECB2
:100C3B008EF0A4CCC5F0CCCDF8EFA4CEC5F02DFD35
:100C4B00E43CFCE8A42EC8C5F03DFDE43CFCEFA45D
:100C5B00FFE5F028FEE43DFDE43CFC22E4FF43ED20
:100C6B000443ED0843ED2043ED4043ED0143ED021A
:100C7B0043ED8043EA0143EC1043ED10053DE53DA8
:100C8B00C39426748094804003E4F53DE53DB4267F
:100C9B00004003020F6C900CA8F8282873020D1A61
:100CAB00020D2A020D3A020D4A020D5A020D69027B
:100CBB000D78020D87020D9A020DAA020DBA020DD4
:100CCB00CA020DDA020DE9020DF8020E07020E1A26
:100CDB00020E29020E39020E49020E59020E68024B
:100CEB000E77020E86020E99020EAC020EBF020E9A
:100CFB00D2020EE5020EF4020F00020F0C020F1CC3
:100D0B00020F28020F34020F40020F4C020F5CE55A
:100D1B003520E003020F6C53EDFED298020EA6E5D0
:100D2B003520E103020F6C53EDFED298020EB9E5AC
:100D3B003520E203020F6C53EDFED298020ECCE588
:100D4B003520E303020F6C53EDFED298020EDFE564
:100D5B003520E403020F6C53EDFBD29A802BE53563
:100D6B0020E503020F6C53EDF7D29B801CE5352079
:100D7B00E603020F6C53EDDFD29D800DE53520E7C6
:100D8B0003020F6C53EDBFD29E53EDFEC29822E5CA
:100D9B003620E003020F6C53EDFDD299020EA6E54F
:100DAB003620E103020F6C53EDFDD299020EB9E52B
:100DBB003620E203020F6C53EDFDD299020ECCE507
:100DCB003620E303020F6C53EDFDD299020EDFE5E3
:100DDB003620E403020F6C53EDFBD29A802BE536E1
:100DEB0020E503020F6C53EDF7D29B801CE53620F8
:100DFB00E603020F6C53EDDFD29D800DE53620E745
:100E0B0003020F6C53EDBFD29E53EDFDC29922E549
:100E1B003720E003020F6C53ED7FD29F807DE537C7
:100E2B0020E103020F6C53ED7FD29F020EB9E53721
:100E3B0020E203020F6C53ED7FD29F020ECCE537FD
:100E4B0020E303020F6C53ED7FD29F020EDFE537D9
:100E5B0020E403020F6C53EDFBD29A802BE5372075
:100E6B00E503020F6C53EDF7D29B801CE53720E6B0
:100E7B0003020F6C53EDDFD29D800DE53720E703A6
:100E8B00020F6C53EDBFD29E53ED7FC29F22E5380C
:100E9B0020E003020F6C53EAFED2F853EDFBC29A2B
:100EAB0022E53820E103020F6C53EAFED2F853ED32
:100EBB00F7C29B22E53820E203020F6C53EAFED205
:100ECB00F853EDDFC29D22E53820E303020F6C538C
:100EDB00EAFED2F853EDBFC29E22E53820E40302AE
:100EEB000F6C53EDFBD29A8022E53830E57353ED4E
:100EFB00F7D29B8016E53830E66753EDDFD29D8045
:100F0B000AE53830E75B53EDBFD29E53EAFEC2F8D9
:100F1B0022E53930E04B53EAFED2F8803EE539301A
:100F2B00E13F53EDDFD29D8022E53930E23353EDC3
:100F3B00FED2988026E53930E32753ED7FD29F8090
:100F4B001AE53930E41B53EDF7D29B53EDEFC29CFE
:100F5B0022E53930E50B53EDFDD29953ECEFC294FA
:100F6B002222900114E004F0C39419748094804001
:100F7B0004E4F0B2209000F5E0C394FA74809480FE
:100F8B005003E004F09000F7E0C394FA748094806F
:100F9B005003E004F0200A069000E1E07007E490B3
:100FAB0000F7F0C2139000F7E0C3943C7480948078
:100FBB004002D213301331300702D21D9000E1E012
:100FCB00648070243004219000D3E0701B9000D714
:100FDB00E0701512336E9000F7E0C394C8748094E0
:100FEB008040057F03120066900125E0C394FF74D7
:100FFB008094805003E004F0053EC3E53E940574F5
:10100B008094804006E4F53E1233810541C3E541EF
:10101B009432748094805003021198E4F54190014E
:10102B000CE004F0E0940A748094804002E4F090A9
:10103B0000D8E0C394FF748094805003E004F090D8
:10104B0000CCE0C394FF748094805003E004F0C3A1
:10105B009000CBE094209000CAE09403500CA3E0E6
:10106B0004F070069000CAE004F09000C9E0C3944D
:10107B00FF748094805003E004F0900124E004F0AE
:10108B00E0C3940A748094804002E4F09000FBE08B
:10109B00C394FF748094805003E004F09000FEE052
:1010AB00C394FF748094805003E004F0900107E038
:1010BB00C394FF748094805003E004F09000E1E04F
:1010CB00FF30E7093004069000D9E004F09000D916
:1010DB00E0C3943C748094804019E4F09000E0E00D
:1010EB0004F0E0943C748094804008E4F09000DBC2
:1010FB00E004F09000C6E004F0E0C3943C748094EC
:10110B00804020E4F09000CDE0FE70069000C8E037
:10111B006011EE9000CD60028006743BF09000C829
:10112B00E014F0EF6405602D3004069000D2E0046B
:10113B00F09000D2E0C3943C74809480404FE4F074
:10114B009000D7E0FF70069000D3E06040EF900076
:10115B00D7603180359000D2E004F0200402E4F037
:10116B009000D2E0C39401748094804020E4F0900E
:10117B0000D7E0FF70069000D3E06011EF9000D72E
:10118B0060028006743BF09000D3E014F0229000D4
:10119B001FE0C394037480948040030212977591EF
:1011AB0007E54C25E02472F582E43400F583E0FE7C
:1011BB00A3E0FFE4FCFD7BCC7A2CF9F8D3120BB245
:1011CB005035E54C25E0240FF582E43400F583E03F
:1011DB00FEA3E0C394FFEE94015003021394054C5D
:1011EB00C3E54C9404748094804009E4F54C900062
:1011FB001FF0D2230213AAE54C25E02472F582E4FA
:10120B003400F583E0FEA3E0FFE54C25E02430F548
:10121B0082E43400F583EEF0FEA3EFF0FFE54C25FE
:10122B00E024B6F582E43400F583EEF0A3EFF0058D
:10123B004CC3E54C940474809480403290001FE0C2
:10124B009403748094805003E004F0E4F54CE54C77
:10125B0025E0240FF582E43400F583E0FEA3E0D310
:10126B009400EE940040028070122F0B801EE54C10
:10127B0025E0240FF582E43400F583E0FEA3E0D3F0
:10128B009400EE9400400280500213AA90001FE0DD
:10129B00C394037480948050030213AD759107E5DA
:1012AB004C25E02472F582E43400F583E0FEA3E0E4
:1012BB00FFE4FCFD7BCC7A2CF9F8C3120BB2404651
:1012CB00E54C25E0240FF582E43400F583E0FEA322
:1012DB00E0D39400EE94004014E54C25E0240FF588
:1012EB0082E43400F58374FFF5F00213A5054CC3BB
:1012FB00E54C9404748094804009E4F54C90001FF5
:10130B00F0D2230213AAE54C25E02472F582E434D3
:10131B0000F583E0FEA3E0FFE54C25E02430F582E9
:10132B00E43400F583EEF0FEA3EFF0FFE54C25E08F
:10133B0024B6F582E43400F583EEF0A3EFF0054C10
:10134B00C3E54C9404748094804025E4F54C9000E4
:10135B001FE09406748094805003E004F090001F0B
:10136B00E0C39406748094804004E4F0D223802F71
:10137B00E54C25E0240FF582E43400F583E0FEA371
:10138B00E0C394FFEE94015016E54C25E0240FF5D5
:10139B0082E43400F583E475F001120A4E800012EA
:1013AB002F0B22E4F527C2009000C4F09000E1E07F
:1013BB0064016005E49000C7F0200A0E20070B20A3
:1013CB000D08200405E49000E1F0200402C2032084
:1013DB000A03200705E49000C6F0200A09300D0629
:1013EB00200703200305E49000D2F09000E1E0FF1A
:1013FB006480600DE49000D9F09000E0F09000DB89
:10140B00F0E5486003021528300A1B9000D8E0C3B2
:10141B00940574809480400EEF6008123308E4F555
:10142B00338003120003300724200A219000C8E008
:10143B00701B9000CDE07015C207D20DD204C21DF7
:10144B00123144E49000BEF07F01120066300D6350
:10145B00300360200A5D9000D3E070579000D7E016
:10146B0070519000E1E06480604912336E7F03128B
:10147B0000669000E1E0FF6402600FEF6403600A16
:10148B00EF64046005EF64057029D204D20DD2031A
:10149B009000E17480F09000C3743CF09000D37422
:1014AB0018F0E49000D7F09000D2F0123144E490A1
:1014BB0000BEF03004559000E1E024806045247FAD
:1014CB00B4060050439014DE75F003A4C58325F0D9
:1014DB00C583730214F00214F50214FA0214FF020E
:1014EB00150402150912167A8021123018801C126D
:1014FB002BD28017122C2F8012122D90800D122EB2
:10150B00C38008121B5A8003120003C3E54994DC05
:10151B00748094804007C200E49000C4F09000C433
:10152B00E09000DFF022E4F5279000F3E09000E17B
:10153B00E075F00BA4241BF582E43435F583E493BA
:10154B00F5271231AC9000D3E0F975F03CA4FF9075
:10155B0000D7E0FD7A002FFFEA35F0FEE527FBC34D
:10156B00EF9B7480F86E98500302164D9000E1E0EB
:10157B00FC75F00BA42418F582E43435F583E49361
:10158B0075F03CA4FFAEF0EC75F00BA42419F582BA
:10159B00E43435F583E4932FFBEA3EFAE975F03C2E
:1015AB00A47C002DFFEC35F0FED3EF9BEA6480F8B2
:1015BB00EE648098500302164D9000D7E0C3952738
:1015CB00500AE0243CF09000D3E014F09000D7E0F8
:1015DB00C39527F0FD9000E1E0FC75F00BA42418F7
:1015EB00F582E43435F583E49375F03CA4FFAEF05B
:1015FB00EC75F00BA42419F582E43435F583E493F0
:10160B00F97A002FFBEA3EFA9000D3E075F03CA488
:10161B007C002DFFEC35F0FEC3EF9BEA6480F8EE07
:10162B0064809850499000E1E075F00BA42418F504
:10163B0082E43435F583E4939000D3F09000D7E93E
:10164B00F0229000E1E0FF75F00BA42418F582E482
:10165B003435F583E4939000D3F0EF75F00BA424AD
:10166B0019F582E43435F583E4939000D7F022E446
:10167B00FB9000C374C8F09000C9E0C3943C748025
:10168B0094804011E4F09000C5E094FF7480948046
:10169B005003E004F09000C7E064016003021751AF
:1016AB009000C3E0FA24B0FEE549C39E5017E4A3B3
:1016BB00F09000D1E02407F8E6FF7E007D2D7C0042
:1016CB00122FF48017C200EAC39549FFE49400FE81
:1016DB007C007D061209C39000C4EFF09000C3E0BC
:1016EB00FFE549C39F40069000C77402F09000D1FC
:1016FB00E0FF7E00C394047480948040047B0280DE
:10170B000FC3EF9402EE648094807B0440027B0352
:10171B009000C5E0FFC39B40069000C77402F0EF3A
:10172B0060030217BF9000C9E0C3940574809480D6
:10173B0040030217BFE549949674809480407590DE
:10174B0000C77402F0229000C7E0C3940274809427
:10175B008040619000C3E0FF24CEFEE549C39E505C
:10176B0014D200E4A3F09000CAF0A3740AF0900026
:10177B00C77403F022EF24F6FFE549C39F500A120A
:10178B002FE99000C77404F0229000C3E0FFE549F5
:10179B00C39F400CC200E4A3F09000C77406F02274
:1017AB00C200C3EF954975F003A49000C4F09000FC
:1017BB00C77405F0221221F49000F4E004F0E0C3AA
:1017CB009432748094804004C21AE4F02016030211
:1017DB0018FFC216E54860030218EE3002057F01C0
:1017EB000200669000E6E024FE604A1470030218C3
:1017FB00861470030218B9240360030218FF200A31
:10180B001220040F20070C9000E1E070061231AC9F
:10181B00023168200A030218FF9000E1E0FF640226
:10182B00600DEF64036008EF640460030218FF129D
:10183B00327C0231AC3004139000F3E0702A123387
:10184B006E1231AC7F01120066801D300711200A29
:10185B000E9000F3E0701112336E1231AC800990D0
:10186B0000F3E070031228AAC2199000F3E0C394AE
:10187B003274809480507DE004F022E548707590BE
:10188B0000E1E0606F9000F3E06009C39432748074
:10189B00948040061231AC1225D8C2199000F3E0A7
:1018AB0004F0E0D394327480948040488031E54852
:1018BB0070429000E1E0603C9000F3E06009C3945B
:1018CB00327480948040061231AC122539C21990C3
:1018DB0000F3E004F0E0D3943274809480401574EC
:1018EB002DF0229000E6E0640270091231AC123345
:1018FB006EE4F548222020109000D8E0C3940174C8
:10190B008094804003021A349000E1E0FF64016090
:10191B0005EF64067017E490010AF0A3F090010D37
:10192B007411F09000D1E090010E0219DB9000E1F0
:10193B00E0FF64026005EF6403702C9000D3E07548
:10194B00F03CA4FF9000D7E02FF527E490010AF0BC
:10195B00A3F0E52775F00A8490010DF0E52775F0EB
:10196B000A84A3E5F080699000E1E0FF7E00640447
:10197B00702D9000D3E0FD75F00A8490010AF0ED14
:10198B0075F00A84A3E5F0F09000D7E0FD75F00A3E
:10199B008490010DF0ED75F00A84A3E5F08031EF32
:1019AB0064054E702F9000D3E0FF75F00A84900110
:1019BB000AF0EF75F00A84A3E5F0F09000D7E0FF92
:1019CB0075F00A8490010DF0EF75F00A84A3E5F031
:1019DB00F0D21C229000E1E06480704D9000C3E0D7
:1019EB00FFC3946474809480501690010A7410F0B5
:1019FB009000C3E0FE75F00A8490010BF0EE801BA3
:101A0B009000C3E0FE75F0648490010AF0EE75F06F
:101A1B000A8475F00A84A3E5F0F0EF75F00A849060
:101A2B00010DE5F0F0A3740CF0229000E1E0FF64EF
:101A3B00016005EF64067018E490010AF0A3F090C2
:101A4B00010D7411F09000D1E090010EF0D21C2228
:101A5B009000E1E0FF64026005EF6403703A9000D0
:101A6B00D3E075F03CA4FF9000D7E02FF527E4906E
:101A7B00010AF0A3F0E52775F00A8490010DF0E55B
:101A8B002775F00A84A3E5F0F0200303021B59200D
:101A9B002003021B59D21C229000E1E0FF7E006460
:101AAB000470379000D3E0FD75F00A8490010AF0C2
:101ABB00ED75F00A84A3E5F0F09000D7E0FD75F02A
:101ACB000A8490010DF0ED75F00A84A3E5F0F0D2D5
:101ADB001C30037A302077D21C22EF64054E703510
:101AEB009000D3E0FF75F00A8490010AF0EF75F0D7
:101AFB000A84A3E5F0F09000D7E0FF75F00A84901C
:101B0B00010DF0EF75F00A84A3E5F0F030033F30E0
:101B1B00203CD21C229000E1E0648070319000D315
:101B2B00E0FF75F00A8490010AF0EF75F00A84A3C8
:101B3B00E5F0F09000D7E0FF75F00A8490010DF00E
:101B4B00EF75F00A84A3E5F0F0302002D21C22C21C
:101B5B0034D2039000C9E0C3943C7480948040114C
:101B6B00E4F09000C5E094FF748094805003E0048F
:101B7B00F09000C3E0FFFD7C00C3946474809480FC
:101B8B005027EF24FBFFE549C39F5003D20022905F
:101B9B0000C3E0FFE549C39F5007C200A37414F0D4
:101BAB0022C200E49000C4F0229000C7E0640170F0
:101BBB00509000C3E024B0FFE549C39F5007D2000B
:101BCB00E4A3F08017C200C3ED9549FFEC9400FE2F
:101BDB007C007D061209C39000C4EFF09000C3E0B7
:101BEB00FFE549C39F40069000C77402F09000C503
:101BFB00E0C394027480948040759000C77402F027
:101C0B00229000C7E0C394027480948040619000DE
:101C1B00C3E0FF24CEFEE549C39E5014D200E4A3DB
:101C2B00F09000CAF0A3740AF09000C77403F0227E
:101C3B00EF24F6FFE549C39F500A122FE99000C726
:101C4B007404F0229000C3E0FFE549C39F400CC22F
:101C5B0000E4A3F09000C77406F022C200C3EF9516
:101C6B004975F003A49000C4F09000C77405F022EE
:101C7B00E4F5279000F3E09000E1E075F00BA4246D
:101C8B001AF582E43435F583E493F5279000E1E00F
:101C9B00FD75F00BA42416F582E43435F583E4933B
:101CAB0075F03CA4FFAEF0ED75F00BA42417F58294
:101CBB00E43435F583E4937C002FFDEC3EFC90007F
:101CCB00D3E075F03CA4FF9000D7E07A002FFFEA39
:101CDB0035F0FEC3EF9DEC6480F8EE648098400213
:101CEB0080721231AC9000D7E02527F0E0C3943C12
:101CFB0074809480400AE024C4F09000D3E004F098
:101D0B009000E1E0FD75F00BA42416F582E4343568
:101D1B00F583E49375F03CA4FFAEF0ED75F00BA4E6
:101D2B002417F582E43435F583E4937C002FFDEC26
:101D3B003EFC9000D3E075F03CA4FF9000D7E07A16
:101D4B00002FFFEA35F0FEC3EF9DEC6480F8EE64E4
:101D5B008098402F1231AC9000E1E0FF75F00BA49E
:101D6B002416F582E43435F583E4939000D3F0EF39
:101D7B0075F00BA42417F582E43435F583E49390C6
:101D8B0000D7F022E4FF302E010FEF6003021E8B11
:101D9B00C3E54A940A748094805002054AC3E54A0D
:101DAB00940A748094805003021E927F0A120017CB
:101DBB009000FFEFF0E0FFFD900104E02DF09001AB
:101DCB0003E03400F0900105E004F0900102E0FE26
:101DDB00EFC39E40089000FFE0900102F0900101DC
:101DEB00E0FF9000FFE0FED39F5005900101EEF065
:101DFB00900105E0C3940A748094804050E4F09005
:101E0B000101E0FF900104E09FFF900103E09400CB
:101E1B00FEF0A3EFF0900102E0FDC3EF9DFFEE9407
:101E2B0000A3F0A3EFF0900103E0FEA3E07803CE54
:101E3B00C313CE13D8F99000FAF0F4F0E490010339
:101E4B00F0A3F0900102F090010174FFF0900100FB
:101E5B00E004F09000FAE0FF900108E0B50705E41C
:101E6B00900100F0900100E0C394327480948040A4
:101E7B0016E4F0900108EFF012320A8F49D23022AB
:101E8B00E4F54A900100F022C2AF12212A43E6206A
:101E9B0053F6DF9000AEA3A3A3E0FFEF42EB90005D
:101EAB00AEE0FCA3E0FDA3E0FEA3E0FF7808120B7D
:101EBB00C3AB07EB42EC9000AEE0FCA3E0FDA3E06C
:101ECB00FEA3E0FF7810120BC3AA07EA42ED9000C5
:101EDB00AEE0FCA3E0FDA3E0FEA3E0FF7818120B3D
:101EEB00C3EF5403FFA907E942EA9000AEE0FCA35D
:101EFB00E0FDA3A3E0FFEF42D3EB42D4EA42D5E9E6
:101F0B0042D653CBBF53CD8F43CD5053CBC043CBD6
:101F1B003E53CDF343CD0453CCDF90000DE0FFC413
:101F2B0033542042CC53D2C743D22053D2F843D29E
:101F3B000490000FE0FEA3E0F5D153CCBFEE5401AB
:101F4B00FEE47802CEC313CE13D8F942CC53CDFDA9
:101F5B0043CD0253CDFE43CD0153FEFD53CAFE5379
:101F6B00CCE0900064E0541F42CC53CAFE43CA013C
:101F7B00D2AF22C0E0C0F0C083C082C0D075D00009
:101F8B00C000C001C002C003C004C005C006C0072A
:101F9B00E517258CF58CE519258AF58A5388DF1210
:101FAB0030A1E4FFFEFDFC900068E0F8A3E0F9A38C
:101FBB00E0FAA3E0FBC3120BB260109000A7E004A1
:101FCB00F0700F9000A6E004F080079000A6E4F0FC
:101FDB00A3F01231CD302A32C390011CE094109043
:101FEB00011BE094275023A3E004F0700690011B23
:101FFB00E004F0D390011CE0940A90011BE09400E4
:10200B004008C22AE4F0A3F0D22C302C2590011EFC
:10201B00E004F0700690011DE004F0C390011EE097
:10202B00943090011DE094754008E4F0A3F0C22CAD
:10203B00C22BD007D006D005D004D003D002D001DC
:10204B00D000D0D0D082D083D0F0D0E032303073FB
:10205B00200405E49000FBF0900108E0D394037496
:10206B00809480501C9000FBE0C394037480948098
:10207B004021E54820E01C7F0212006643480180A6
:10208B0012900108E0D39405748094804005E4908D
:10209B0000FBF0900108E0C394F874809480401E1C
:1020AB003004209000FEE09428748094804014E566
:1020BB004820E10F7F021200664348028005E4903E
:1020CB0000FEF0900106E0FF65486016E5486003EE
:1020DB00EF600FE548700B900106E060057F011281
:1020EB000066E548602B9000FDE004F07006900060
:1020FB00FCE004F0C39000FDE094B89000FCE09489
:10210B000B401512336EE49000FCF0A3F0F5488001
:10211B0007E49000FCF0A3F0900106E548F022E400
:10212B00F527F527C3E527940474809480400302B8
:10213B0021F39000AEE0F8A3E0F9A3E0FAA3E0FBF3
:10214B00C000C001E47F01FEFDFCE52790349D93A8
:10215B00F9F8120BEAD001D000EB4FFFEA4EFEE983
:10216B004DFDE84CFC9000AE120BFDE52790349D25
:10217B0093FF74642527F582E43400F583EFF0E5D3
:10218B002725E024EBF582E43434F583E493FE74E5
:10219B000193FFE52725E0240FF582E43400F58356
:1021AB00EEF0A3EFF075F002E527A42472F582E5BB
:1021BB00F03400F583E4F0A3F075F002E527A424D6
:1021CB0030F582E5F03400F583E4F0A304F075F00C
:1021DB0002E527A424B6F582E5F03400F583E4F09C
:1021EB00A304F0052702212F22E4F5279000E6F047
:1021FB00F527C3E5279404748094805040E527901D
:10220B00349D93F9E47F01FEFDFCA801120BEA90CB
:10221B000068E0F8A3E0F9A3E0FAA3E05FFFEA5E51
:10222B00FEE95DFDE85C4D4E4F600E9000E6E52744
:10223B00F0E004F0E0900109F0052780B59000E68E
:10224B00E0FF602FE49000F6F09000ECE0FEEFB5BD
:10225B000615A3E004F0C3748094804040E4F020A2
:10226B00193BD219D216229000E6E09000ECF0E474
:10227B00A3F022E49000EDF09000F6E004F0E0C350
:10228B009401748094804015E49000E6F09000F681
:10229B00F0C219C2179000F3F09000ECF022C0E0EE
:1022AB00C0F0C083C082C0D075D000C000C001C0D8
:1022BB0002C003C004C005C006C00753F1DF53CAF8
:1022CB00FE900121E4F0A3F0202762C2AFAFCFEF65
:1022DB00FEADCEEDFFE54C25E02472F582E4340033
:1022EB00F583EEF0A3EFF0D2AF2023051211998006
:1022FB003C302839054C7464254CF582E43400F5E8
:10230B0083E0F4701553CAFE054CC3E54C9404747A
:10231B0080948040E1754C00D224C3E54C94047446
:10232B008094804005754C00D224122F0BD007D01F
:10233B0006D005D004D003D002D001D000D0D0D02D
:10234B0082D083D0F0D0E03290010A7410F0A3F069
:10235B0090010DF0A3F0E548603290010A7410F083
:10236B00A3740EF0E54830E00690010D7401F0E522
:10237B004830E10690010D7402F0E54830E206901A
:10238B00010D7403F090010E7410F022200A1C2032
:10239B000D19200716200513200410E490010AF0F4
:1023AB00A3F090010DF0A3F0D21C22300A08301DCF
:1023BB00028006021900301D03022B099000F5E084
:1023CB00C394327480948050153020028010900199
:1023DB000A7410F0A3F090010DF0A3F08003121A11
:1023EB0035300708201305302002D21C22AB0753CF
:1023FB00E6EFA8037401088002C333D8FCF5D9E4D7
:10240B007F01FEFDFCA803120BEA7808120BC38FA9
:10241B00DAE47F01FEFDFCA803120BEA7810120B25
:10242B00C38FDBE47F01FEFDFCA803120BEA7818D7
:10243B00120BC38FDCE47F01FEFDFCA803120BEA39
:10244B00EE5404FEE4FDFCEE600C53B5C1EB25E04D
:10245B00543E42B580037F002253FEFE7F147E0064
:10246B0012333353B5FE43B501D232E5F130E4FB01
:10247B00E4F51BF51CC23253F1EF53FEFE43FE0194
:10248B00E5B9C454F0FFE5BAC4540F4FFF22E51F62
:10249B00603914900115F0E4F51FE075F003A424E6
:1024AB0063F582E43435F583E493900118F0E490FE
:1024BB00011AF0C22FD22E53FEFE43FE0153B5FE7E
:1024CB0053E6EFF5D9F5DAF5DBF5DC302E5F90014D
:1024DB001AE004F0900115E0FF75F003A42461F5F8
:1024EB0082E43435F583E493FE90011AE0FDD39E2C
:1024FB005007D22F53ECFB8007C22FD29243EC0430
:10250B00EF75F003A42462F582E43435F583E4938C
:10251B00B5051A900118E014F0E490011AF090013F
:10252B0018E07009C22EC22FD29243EC0422301D48
:10253B0006300A03022D3C9000E1E0FF64016005C8
:10254B00EF64067013E49000F53013028052F0C272
:10255B00139000F7F002311F9000E1E0FF6402607E
:10256B000FEF6403600AEF64046005EF6405701FEE
:10257B00301D09C21DE49000DCF08021E49000F5D1
:10258B00301302801BF0C2139000F7F0021C7B90FB
:10259B0000E1E06480703530041E30130D9000F5BF
:1025AB00F0C2139000F7F00231ACE49000F5F0C2EA
:1025BB00139000F7F0022A209000C3E02405F0E00E
:1025CB00C3945A748094804003745AF022301D06D1
:1025DB00300A03022F869000E1E0FF64016005EFF3
:1025EB0064067013E49000F53013028052F0C213AE
:1025FB009000F7F00230F79000E1E0FF6402600F0B
:10260B00EF6403600AEF64046005EF6405701F302C
:10261B001D09C21DE49000DCF08021E49000F53030
:10262B001302801BF0C2139000F7F00215319000DB
:10263B00E1E06480703530041E30130D9000F5F02E
:10264B00C2139000F7F00231ACE49000F5F0C21326
:10265B009000F7F00229A79000C3E024FBF0E0D331
:10266B0094287480948050037428F02278FFE4F649
:10267B00D8FD9000007F007E02E4F0A3DFFCDEFAC1
:10268B0075814D0226CC023347E493A3F8E493A360
:10269B004003F68001F208DFF48029E493A3F85499
:1026AB0007240CC8C333C4540F4420C8834004F41C
:1026BB0056800146F6DFE4800B010204081020402F
:1026CB00809005CDE47E019360BCA3FF543F30E5C1
:1026DB0009541FFEE493A360010ECF54C025E060A4
:1026EB00A840B8E493A3FAE493A3F8E493A3C8C572
:1026FB0082C8CAC583CAF0A3C8C582C8CAC583CA63
:10270B00DFE9DEE780BEC2AF759623AF97EFFC75AE
:10271B009622AF97EFFD7F01EFC3940974809480ED
:10272B005035EF04F596EF25E0247CF582E4343543
:10273B00F583C37401939DFBE4939C8B82F583E437
:10274B0093FEEF90358E93FBEE5BFEE5975B6E6031
:10275B0003758E550F80C1C3744D9DFF74409C8FC4
:10276B0082F583E493C3944074809480401DE4937A
:10277B00D39460748094805012C3744D9DFF744049
:10278B009C8F82F583E493900126F0E4F5A0D2AF01
:10279B00228E278F28C2AF53B8FD5388DF5389FC95
:1027AB00438901AC27AD28E412094112097AE4C32D
:1027BB009FFFE49EFE74019400FDE49400FC7808F6
:1027CB00120BD68F8CAC27AD28E412094112097A73
:1027DB00EFF404F58A858C17858A19AE27AF28ABE1
:1027EB0007AA06E4F9F87F207EA17D07FC12001EE4
:1027FB0090011FEEF0A3EFF0AE27AF28AB07AA06B0
:10280B00E4F9F87FA07E867D01FC12001E8E1D8FE1
:10281B001E43A802438810D2AF22A293E433FF9049
:10282B0000CEE0FE6F6044A293E4336E603DE4A300
:10283B00F0A3F0A293339000CEF0E49000E2F0D23C
:10284B00109000DFE0FF9000C1E0C39F5004D21254
:10285B008002C212E49000DAF09000C1E004F0E0D4
:10286B00C39464748094804002E4F0C39000D0E081
:10287B0094C09000CFE0945D4005D2F9D2F922309C
:10288B00121AC2F99000DAE0C3943074809480403D
:10289B0004D2F9C2129000DAE004F022D2F922201D
:1028AB000D1120040E20070B200508200A05122D00
:1028BB00E08067300A67C207D20DD20AC221C21D5F
:1028CB00C2039000E1E004F0E0C3940774809480AD
:1028DB0040037401F0D20D9000E1E0FF75F00BA402
:1028EB002414F582E43435F583E4939000D3F0EFB0
:1028FB0075F00BA42415F582E43435F583E493903D
:10290B0000D7F09000E1E075F00BA4241CF582E4F5
:10291B003435F583E4939000D1F01231AC228F3231
:10292B00746E2FF582E43400F583E004F074092F04
:10293B00F582E43400F583E4F0746E2FF582E43411
:10294B0000F583E0C3940274809480404E746E2F24
:10295B00F582E43400F583E4F0900068E0F8A3E03E
:10296B00F9A3E0FAA3E0FBC000C001E47F01FEFD88
:10297B00FC74642532F582E43400F583E0F9F81237
:10298B000BEA120B81D001D000EB5FFFEA5EFEE990
:10299B005DFDE85CFC900068120BFD22E4F52790CE
:1029AB0000D2F075271E1231AC9000D3E075F03CCD
:1029BB00A4FF9000D7E0F97C002FFFEC35F0FEC3AD
:1029CB00EF95277480F86E984041D3EF9400EE6436
:1029DB0080948050028034E9C39527500D9000D726
:1029EB00E0243CF09000D3E014F09000D7E0C395C6
:1029FB0027F0FD9000D3E075F03CA47C002DEC3566
:102A0B00F0C364809480500CE48004E49000D3F015
:102A1B009000D7F022E4F5279000D2F075271E1214
:102A2B0031AC9000D3E075F03CA4FF9000D7E07C74
:102A3B00002FFFEC35F0FEC3EF94A0EE648094857D
:102A4B004002803B9000D7E02527F0E0C3943C7414
:102A5B00809480400AE024C4F09000D3E004F0900E
:102A6B0000D3E075F03CA4FF9000D7E07C002FFF73
:102A7B00EC35F0FEC3EF94A0EE64809485400B9090
:102A8B0000D37418F0E49000D7F02230246FC224E6
:102A9B0053E6DFE4F54BC3E54B940474809480500C
:102AAB0059E54B90349D93F4604C900126E0FF7EEA
:102ABB00007C037DE8120C3AE47B50FAF9F8120A19
:102ACB00EFA804A905AA06AB07E54B25E024B7F54B
:102ADB0082E43434F583E493FE740193FFE4FCFD4C
:102AEB00120A64E47BE87A03F9F8120AEFAD07AC3B
:102AFB0006AF4B12007E054B809C43E62022300A2A
:102B0B00323020609000C8E0FF75F00A8490010A13
:102B1B00F0EF75F00A84A3E5F0F09000CDE0FF75BF
:102B2B00F00A8490010DF0EF75F00A84A3E5F0F044
:102B3B00D21C229000C8E0FF75F00A8490010AF0C5
:102B4B00EF75F00A84A3E5F0F09000CDE0FF75F08F
:102B5B000A8490010DF0EF75F00A84A3E5F0F030D4
:102B6B002002D21C22E4900127F0900127E0FBC346
:102B7B00940474809480504EE47F01FEFDFC7464D9
:102B8B002BF582E43400F583E0F9F8120BEAED4CF7
:102B9B004E4F602AC2AF900127E0FF25E02472F56B
:102BAB0082E43400F583E0FCA3E0FDEF25E0243064
:102BBB00F582E43400F583ECF0A3EDF0D2AF900195
:102BCB0027E004F080A422D2039000C9E0C3943C18
:102BDB00748094804011E4F09000C5E094FF748001
:102BEB0094805003E004F09000C5E075F03CA4FF26
:102BFB009000C9E07C002FFFEC35F0FEC3EF947022
:102C0B00EE940050067D127F0A8013C3EF942EEED4
:102C1B0094017D127C0050047F1280027F077E009E
:102C2B00122FF422D2039000C9E0C3943C74809419
:102C3B00804011E4F09000C5E094FF7480948050C4
:102C4B0003E004F09000C5E075F03CA4FF9000C9D0
:102C5B00E07C002FFFEC35F0FEC3EF9470EE940098
:102C6B0050067D127F0A8013C3EF9427EE94017DEB
:102C7B00127C0050047F1280027F047E00122FF41E
:102C8B0022C0E0C0F0C083C082C0D075D000C000AD
:102C9B00C001C002C003C004C005C006C0075388F2
:102CAB007F0540C3E54094087480948040057540CF
:102CBB00000542123394120C67303303122825D0CF
:102CCB0007D006D005D004D003D002D001D000D05D
:102CDB00D0D082D083D0F0D0E032C2AF43F61053C5
:102CEB00F1EFE4F5D975DA04F5DBF5DC75B4FF53D8
:102CFB00BB0743BB4053BBFB43BB0453BBFC43BBB6
:102D0B000353BCBF53BCCF43BC1053BCF343BC0CED
:102D1B0053BCFD53B6FC43B60275962D5397FE7507
:102D2B00962D5397FD43970253B5FE53E6EFD2AF63
:102D3B0022E49000C6F09000CDE0241EF09000C875
:102D4B00E0C394187480948040199000CDE0D39424
:102D5B000074809480400C9000C87418F0E49000CC
:102D6B00CDF0229000CDE0C3943C7480948040144D
:102D7B00E4F09000C8E004F0E09418748094804074
:102D8B00037418F022D2039000C9E0C3943C748002
:102D9B0094804011E4F09000C5E094FF748094801F
:102DAB005003E004F09000C5E075F03CA4FF9000E8
:102DBB00C9E07C002FFFEC35F0FEC3EF9470EE946E
:102DCB000050067D127F0A80067D0C7C007F067EFC
:102DDB0000122FF4229000E17401F0E0FF75F00B6C
:102DEB00A42414F582E43435F583E4939000D3F0F6
:102DFB00EF75F00BA42415F582E43435F583E493D9
:102E0B009000D7F09000E1E075F00BA4241CF58244
:102E1B00E43435F583E4939000D1F0D20AD20D75EA
:102E2B00330722123245203305123295803F12238D
:102E3B0053122F4B20222C90010AE0903597939040
:102E4B00010AF0A3E09035979390010BF090010DE0
:102E5B00E09035979390010DF0A3E0903597939008
:102E6B00010EF0301C0790010DE04480F00230CCD5
:102E7B009000E1E024FE601814601D1460221460C1
:102E8B002714602C2405702F90010FE04401F022D1
:102E9B0090010FE04402F02290010FE04404F02275
:102EAB0090010FE04408F02290010FE04410F02253
:102EBB0090010FE04420F0229000C9E0C394C87445
:102ECB00809480400374C8F09000E1E064017006C8
:102EDB009000C974C8F09000C9E0C39470748094DA
:102EEB0080500A7D127C007F0A7E00800F9000D1FB
:102EFB00E02407F8E6FF7E007D127C00122FF422FF
:102F0B00E54C25E0240FF582E43400F583E0FEA3C5
:102F1B00E0F5D153CCBFEE5401FEE47802CEC313DF
:102F2B00CE13D8F942CC53CCE07464254CF582E433
:102F3B003400F583E0541F42CC53CAFE43CA01222E
:102F4B00E54860063020330232AC300A12202027CD
:102F5B009000D8E0C3940174809480501D80189029
:102F6B0000F5E0C3943274809480500B30200280C3
:102F7B0006E490010FF022122E7B22E49000C6F0A3
:102F8B009000C8E0C3940174809480401F9000CDE2
:102F9B00E0FF941E748094804005E024E2F02290C0
:102FAB0000C8E014F0EF241E9000CDF022C0E0C06A
:102FBB0083C08253E1FEE58630E007D22AD22B5341
:102FCB0086FEE58630E1105386FDC22AC22BC22C49
:102FDB0090011BE4F0A3F0D082D083D0E032E490D8
:102FEB0000C4F07D16FC7F0AFEC39000CBE09D90E1
:102FFB0000CAE09C4004E4F0A3F0C39000CBE09F38
:10300B009000CAE09E4003C20022D20022D203905D
:10301B0000C9E0C394C874809480400374C8F090D6
:10302B0000C9E0C39470748094807D127C005004BE
:10303B007F0A80027F077E00122FF422C3E54294A1
:10304B001474809480402174EC2542F5423033098E
:10305B001217C01213AE12205812249912335B129E
:10306B001D8F120F6D122E2E22E4F5D3F5D4F5D54C
:10307B00F5D653E5FEF5EFF5EEF5D875F802F5EA62
:10308B00F5DDF580F5EBF5DEF59075EC08F5DFF584
:10309B0098F5EDF5E222900122E004F07006900124
:1030AB0021E004F090011FE0FEA3E0FFC39001229A
:1030BB00E09F900121E09E4007E4F0A3F0758E5550
:1030CB002290010EE0F53590010DE0F53690010BE5
:1030DB00E0F53790010AE0F53890010FE0F539A3E0
:1030EB00E0F53AA3E0F53BA3E0F53C22E4F53390A1
:1030FB0000E1E075F00BA4241EF582E43435F58372
:10310B00E493FF9000D1E0D39F4003E014F0300430
:10311B0002D20E229000E1E075F00BA4241DF58283
:10312B00E43435F583E493FF9000D1E0C39F500363
:10313B00E004F0300402D20E22C201E49000C5F08C
:10314B009000D5F0A3F09000C9F0A3F0A3F0A3F08A
:10315B009000BEE004F09000C274FFF022D20AD2BD
:10316B000DD2039000E1E04480F09000D37418F08E
:10317B00E49000D7F09000D2F09000C3743CF022A2
:10318B00C39000A7E094989000A6E0943A4011E415
:10319B00F0A3F0900068120C0900000000122B70D5
:1031AB0022E49000F4F090010CF09000D8F0900124
:1031BB0014F0D220F5419000F3E070057F0112006E
:1031CB00662230321B051CE51C7002051BC3951EC5
:1031DB00E51B951D400A758E55E4F51BF51CC23297
:1031EB0022C2AF43B80853887F5389CF438920EF5E
:1031FB00F404F58DF58B43A808438840D2AF22E445
:10320B00FEEE9033A293FDEFC39D400A0EEE94FAAF
:10321B007480948040EBEE60011EAF0622C2AF4378
:10322B00F40153E1FE5386FE5386FD53FEEF53FF2D
:10323B00F843FF0643E701D2AF22E490010AF0A363
:10324B00F090010DF0A3F0A3F0A3F0A3F0A3F0C254
:10325B0022C21CC21F22C0E0E58530E1065385FD6A
:10326B0053F17FE58530E0065385FE53F17FD0E0C7
:10327B0032D20AD207D21DC221E49000C6F09000D0
:10328B00CD741EF0E49000C8F02290010A74FFF098
:10329B00A3F090010DF0A3F0A3F0A3F0A3F0A3F023
:1032AB002290010FE04401F04402F04404F0440882
:1032BB00F04410F04420F022C2AF53FFC743FF107D
:1032CB0075962E5397FB43970453FEF7D2AF22C24A
:1032DB00AF53F67F5385FD53F17FE4F5927591075C
:1032EB0043E680D2AF227FE87E0312279C7F7D7E50
:1032FB00001231EC123228122CE5021E93C20A90F6
:10330B0000C77401F020070A123144D204E4900084
:10331B00BEF0221232C31232DA120013122711122C
:10332B00307412001A0232F1D3EF9400EE94004085
:10333B000A759107EF1F70F01E80ED2212331E12DB
:10334B00000E759107202B03122A9612304780F23C
:10335B0020330F900125E0C3943274809480400297
:10336B00D23322C21DC221C20DC207C20AC204C27D
:10337B0005C203C20022300608C20630000AD295ED
:10338B0022D206200002C29522302F0AE59030E2AD
:10339B0003C29222D29222030404040405050505FC
:1033AB0006060607070708080809090A0A0A0B0B8D
:1033BB000C0C0D0E0E0F0F101111121314141516F9
:1033CB00171818191A1B1C1D1E1F20222324252613
:1033DB0027292A2B2D2E2F3132343537383A3B3DC6
:1033EB003F4042444547494A4C4E5052535557591A
:1033FB005B5D5E60626466686A6C6E707173757734
:10340B00797B7D7F81828486888A8B8D8F91939443
:10341B009698999B9D9EA0A2A3A5A6A8A9ABACAE7E
:10342B00AFB1B2B3B5B6B7B9BABBBCBEBFC0C1C200
:10343B00C4C5C6C7C8C9CACBCCCDCECFD0D1D1D2CB
:10344B00D3D4D5D6D6D7D8D9D9DADBDBDCDDDDDEE4
:10345B00DFDFE0E0E1E2E2E3E3E4E4E5E5E6E6E733
:10346B00E7E8E8E8E9E9EAEAEAEBEBECECECEDEDAE
:10347B00EDEEEEEEEFEFEFEFF0F0F0F0F1F1F1F14A
:10348B00F2F2F2F2F3F3F3F3F3F4F4F4F4F4F5F5FC
:10349B00F5F5080F070E6464646464646464646423
:1034AB00646464646464646464646464019001903F
:1034BB000190019001900190019001900190019079
:1034CB000190019001900190019001900190019069
:1034DB000190019001900190019001900190019059
:1034EB00012C012C012C012C012C012C012C012C69
:1034FB00012C012C012C012C012C012C012C012C59
:10350B00012C012C012C012C012C012C012C012C48
:10351B00012C012C01000100010005010305010034
:10352B000501000005050101010100050100000571
:10353B00050101010100140300000514050101013F
:10354B00031E3C0001001E1E0101010100010001D0
:10355B000005010505010810011A320108190505BE
:10356B000A03050A030A320A0A320A0A320A051941
:10357B000A407F407D407B407940774075407340E7
:10358B0071406F001F3FFFFFFF3FFF7F3F305B79B5
:10359B00746D6F387F7D7E670F734F4E005E434CAB
:0135AB0076A9
:00000001FF
